S01500006B6C32357A2D6E6F7468696E672E7372656333
S21400000000300020110400007D1C00008D1C000044
S21400001000000000000000000000000000000000DB
S214000020000000000000000000000000A11C00000E
S2140000300000000000000000B51C00005111000088
S214000040C91C0000DD1C0000F11C0000051D00009E
S214000050210400002104000021040000191D0000F6
S2140000602D1D0000411D0000551D0000691D0000EB
S2140000708D140000F5140000591500007D1D0000C9
S214000080911D0000B9120000A51D0000B91D00005A
S214000090CD1D0000E11D0000F51D0000210400003C
S2140000A0091E00001D1E0000311E0000451E000037
S2140000B0591E00002104000061220000E922000011
S214000400FFFFFFFFFFFFFFFFFFFFFFFFFEFFFFFFF8
S21400041072B601F02BFD00F03FFC62B602F0F6FD6E
S2140004200048004721040000002243088B4274D392
S21400043003098B425FD3030A8B4244D3030B8B42E0
S21400044028D3030C8B420DD3FF22090212BA030CE9
S2140004508B4202D31212090265D0030B8B4219D3CA
S21400046000E0090AC30B8B4201D3CB03C01A5241EA
S214000470830B8B4201D38B03C01A5241430B8B4232
S21400048001D34B03C01A5241030B8B4201D30B031B
S214000490C01A5241C30A8B4201D3CB02C01A524142
S2140004A0830A8B4201D38B02C01A5241430A8B4205
S2140004B001D34B02C01A5241030A8B4201D30B02EE
S2140004C0C01A5241CDD2C3098B4201D3CB01C01A08
S2140004D0524183098B4201D38B01C01A5241430912
S2140004E08B4201D34B01C01A524103098B4201D300
S2140004F00B01C01A5241C3088B4201D3CB00C01A6D
S214000500524183088B4201D38B00C01A52414308E4
S2140005108B4201D34B00C01A5241411A00D2014609
S214000520524110467047FFE701B5002000F0FCF886
S21400053002BDC0460029F7D003B5FFF775FF0EBC15
S2140005404243891A1847C04603460B437FD400220D
S21400055043088B4274D303098B425FD3030A8B4252
S21400056044D3030B8B4228D3030C8B420DD3FF22BC
S214000570090212BA030C8B4202D31212090265D08A
S214000580030B8B4219D300E0090AC30B8B4201D33D
S214000590CB03C01A5241830B8B4201D38B03C01A84
S2140005A05241430B8B4201D34B03C01A5241030BFB
S2140005B08B4201D30B03C01A5241C30A8B4201D3AC
S2140005C0CB02C01A5241830A8B4201D38B02C01A57
S2140005D05241430A8B4201D34B02C01A5241030ACE
S2140005E08B4201D30B02C01A5241CDD2C3098B42B3
S2140005F001D3CB01C01A524183098B4201D38B0130
S214000600C01A524143098B4201D34B01C01A5241D2
S21400061003098B4201D30B01C01A5241C3088B4217
S21400062001D3CB00C01A524183088B4201D38B0002
S214000630C01A524143088B4201D34B00C01A5241A4
S214000640411A00D201465241104670475DE0CA0F7B
S21400065000D04942031000D34042534000229C463B
S21400066003098B422DD3030A8B4212D3FC22890145
S21400067012BA030A8B420CD3890192118B4208D31B
S214000680890192118B4204D389013AD0921100E07D
S2140006908909C3098B4201D3CB01C01A5241830991
S2140006A08B4201D38B01C01A524143098B4201D3BE
S2140006B04B01C01A524103098B4201D30B01C01AE9
S2140006C05241C3088B4201D3CB00C01A5241830863
S2140006D08B4201D38B00C01A5241D9D243088B42B9
S2140006E001D34B00C01A5241411A00D2014663465C
S2140006F052415B10104601D34042002B00D54942C0
S214000700704763465B1000D3404201B5002000F0FE
S2140007100BF802BD0029F8D003B5FFF715FF0EBC95
S2140007204243891A1847C0467047C046002B11D16D
S214000730002A0FD1002900D1002802D00021C94389
S214000740081C07B4024802A14018029003BDC04628
S214000750D9FFFFFF03B4684601B5029800F022F8FF
S214000760019B9E4602B00CBC7047C046F0B583B0F5
S214000770161C1F1C0090019100F058F8041C0D1C5C
S214000780221C2B1C301C391C00F026F8009A019BFA
S214000790121A8B410899201C0A604B60291C03B072
S2140007A0F0BDC046F0B5141C83B01D1C009001912E
S2140007B000F034F9221C2B1C061C0F1C00F00CF851
S2140007C0009A019B121A8B410899301C0A604B60F4
S2140007D0391C03B0F0BDC046F0B54F46464605048A
S2140007E02D0C2C1CC0B41704160C3F0C9946030C99
S2140007F07C4375435F4373437D19260CAD199C46B5
S214000800AF4203D980235B029846C4444B4651430B
S214000810434324042E0C240C2D0466442C1959182A
S2140008208919201C0CBC90469946F0BDF0B544468C
S2140008305F4656464D46F0B41C1C85B0002900DACB
S214000840A9E00F1C0021061C8846101C191C002C51
S21400085000DA97E0341C3D1C82468946B94273D8BC
S21400086070D04946504600F085F98346391C301C46
S21400087000F080F95B46181A031C8346203B9C4612
S21400088000D59CE000230022514600920193634667
S2140008909940019151468140019B0091BB4200D98D
S2140008A083E000D17EE0009A019B341C3D1CA41A14
S2140008B09D416346002B00DA9AE000260027029648
S2140008C0039701369E40039601268640029600282E
S2140008D000D171E00099019AD30799464B464E081D
S2140008E01E435708002301220CE0AF4201D1A64266
S2140008F00AD8A41BBD4124196D410138A4185D41D6
S214000900002806D0AF42F0D9013824196D410028DE
S214000910F8D12022029E039F5B46524236196F4151
S21400092099185AD4281CC8402C1C5B46DC40002969
S21400093068DB041C8C40231C59468840021CB61AEF
S2140009409F4103E0B0428CD90026002741464B1E4B
S2140009509941002300910193009A019B002554427F
S2140009609D41331C6340181C3B1C6B40191C009BAC
S214000970019CC018614105B03CBC90469946A24611
S214000980AB46F0BD4346DB430C1C9846131C0021C7
S2140009905842A1415EE7002746428F410121494265
S2140009A0884652E7B14200D87DE700260027029627
S2140009B00397002800D08DE7029E039FC6E72021FC
S2140009C05346091ACB400022191C002300920193BB
S2140009D04B4683400B4301935CE75A4620239B1A01
S2140009E02A1C9A40201C131C5A46D04018439BE7EA
S2140009F020260027331A0026029603970127DF4099
S214000A00039761E75B4620215D46C91A031CAC408C
S214000A10CB40191C231C0B438EE7C046F0B5454659
S214000A204E465746E0B4041C82B00D1C91469846CC
S214000A308B4262D85FD04146484600F09BF8291C9E
S214000A40061C201C00F096F82023311A5B428A46CA
S214000A50C81865D44B4683401F1C4B468B401E1C53
S214000A60AF4258D855D0A41BBD41002800DA77E025
S214000A70002200230092019301328240019201235A
S214000A808B40009300293CD0FB07984640467208EE
S214000A907B080243012600270CE0AB4201D1A242AC
S214000AA00AD8A41A9D4124196D410139A4197D4123
S214000AB0002906D0AB42F0D9013924196D4100292E
S214000AC0F8D12022009801995346524200196941F4
S214000AD09E183AD42F1CF7405346DD40002E29DBE3
S214000AE03C1CB440231C5446A7403A1C801A99412B
S214000AF00090019105E082429DD9002300240093D6
S214000B0001940098019902B01CBC90469946A246F2
S214000B10F0BDA342A7D90022002300920193B1E7BB
S214000B2020224B46521AD3401A1C43468B401F1CA9
S214000B30174392E7534620245646E41A3B1CB5401A
S214000B40E3401C1C2B1C2343CDE7524620239B1A54
S214000B502A1C9A40271C131C5246D7401F43BBE74B
S214000B6020230022581A0023009201930132C2402B
S214000B70019284E710B5002903D100F007F8203071
S214000B8002E0081C00F002F810BDC0461C2101233C
S214000B901B04984201D3000C10391B0A984201D35B
S214000BA0000A08391B09984201D30009043902A239
S214000BB0105C40187047C0460403020201010101A0
S214000BC0000000000000000070B586B0039001929F
S214000BD00B236B440A1C1A7017236B4401221A70ED
S214000BE0039B1B88002B02D01B2B11D03DE0244B0F
S214000BF000221A70234AA023DB00101C191C02F0E6
S214000C00F5FF17236B4400221A70039B1B221A80E1
S214000C1017236B441B78002B01D101232DE0194BC1
S214000C20181C03F00FF8031E1ED0154B1B78181C5B
S214000C300321FFF77FFC124B1B785A1CD1B2104AD7
S214000C4011701E1C00F0C4F9051C00F0CFF9041C3E
S214000C500D4B181C311C2A1C231C01F09DFB094B54
S214000C60181C02F0E1FFCCE7CBE717236B44002209
S214000C701A70039B00221A800323181C06B070BD4E
S214000C80B0F5FF1FB4F5FF1F4C3001007047C0469B
S214000C907047C0467047C04688B0264B0393264A26
S214000CA0264B9A4216D0002307930AE0234B079A56
S214000CB09200D158204B079A9200D150079B0133DF
S214000CC00793039B9A08079B9A42EFD81C4B1A4A35
S214000CD09A6002E01A4B194A9A601A4B06931A4B0E
S214000CE005931A4B0293029A059BD31A079307E0C3
S214000CF0069B5A1C0692059A511C059112781A708A
S214000D00079B5A1E0792002BF2D1114B0493114BEE
S214000D100193019A049BD31A079304E0049B5A1C80
S214000D20049200221A70079B5A1E0792002BF5D1D8
S214000D3008B070470000000000000000000000003F
S214000D4000ED00E000F0FF1F7440010020460100A7
S214000D50B0F5FF1F8C10002030B583B0021C009148
S214000D606B4607331A706B4607331B787F2B33D9D5
S214000D70304C6B4607331B781A1C0F231340083B76
S214000D8099082C4A6B4607331B78181C0F23034020
S214000D90083B9B0806339B00D3185B686A460732FD
S214000DA01278101C03220240D200101CFF22824040
S214000DB0D2431A40009B9B01FF2003406846073041
S214000DC00078051C03202840C00083401A438B1D72
S214000DD09B00E3185A602AE0174C6B4607331B78D3
S214000DE05BB29B0814496A460732127852B29208E0
S214000DF0C03292005258694607310978081C032110
S214000E000140C900081CFF218140C9431140009AD7
S214000E109201FF200240684607300078051C032038
S214000E202840C00082400A43C0339B001A5103B0DA
S214000E3030BDC04600ED00E000E100E000B583B044
S214000E400190019B013B0C4A934201D9012310E01B
S214000E500A4B019A013A5A6001235B42181C03218F
S214000E60FFF77AFF054B00229A60044B07221A60B0
S214000E700023181C03B000BDFFFFFF0010E000E0D9
S214000E8010B5434A424B1B78DBB203210B43DBB25F
S214000E90137040493F4A404BD358404A13403E4A9D
S214000EA08B503C493B4A3C4BD358C02292041343D8
S214000EB0394A8B503749374A394BD3588022520427
S214000EC01343374A8B50374B00225A60354B364A0D
S214000ED09A60344B80221A60324A84230021D15013
S214000EE0304B1022DA602F4B00221A612D4B002265
S214000EF05A612C4B0022DA612A4B00225A62294B97
S214000F000022DA62274B00225A6311208021FFF765
S214000F1023FF264A0023002413605460244A00233B
S214000F200024136054601F4B08221A601949194A9E
S214000F30204BD358012213431E4A8B501E4B80224F
S214000F401A601D4B13225A601C4B181CFFF776FFC5
S214000F50031E03D01A4B181C01F01EFA072001F0DE
S214000F60A3F8021C174B181C111C01F035F9164A81
S214000F70164B101C07211A1C01F086F8072001F0FA
S214000F8093F8021C0F4B181C111C01F03DF910BD04
S214000F90004006400070044004100000FFFFFFFC05
S214000FA03C10000000800340FFFF0000C8F5FF1F54
S214000FB0D0F5FF1F3810000000000440D8B8050028
S214000FC070300100C0F00F4000C004400001000176
S214000FD010B5054B5C681B682006190A0143220AF7
S214000FE00B1C181C10BDC046C8F5FF1F10B5054BDE
S214000FF05C681B686004D90B0143E20B0B1C181CD1
S21400100010BDC046D0F5FF1F00B585B00190FFF7B4
S214001010DFFF031C0393C046FFF7DAFF021C039BA7
S214001020D21A019B9A42F7D305B000BD82B0021CCB
S2140010306B4606331A800B4B80221A60094B6A46B1
S214001040063212889A60074B01221A60C046054B8A
S2140010501B6880221340FAD0024B80221A6002B02E
S2140010607047C0460000044000B583B00190019B65
S2140010709BB2181CFFF7DAFF03B000BDF0B5474679
S21400108080B488B00E2302AA94466344984600F0C3
S2140010900BF9031C424613802A4B1A685B680292BF
S2140010A00393039B1B04029A120C13430693039BA1
S2140010B01B0C07930DE0244B234A126880210A4339
S2140010C01A60069A079B0120002112184B410692CF
S2140010D007931D4B1B6880221340ECD1069B1B0C0C
S2140010E0079A15041D43069B1C040E2302AA944669
S2140010F063441B889BB20093002301930099019AD6
S2140011000B1C23431E1C131C2B431F1C0D4B1E6065
S2140011105F600C4B19685A68029B039CC91AA2416F
S2140011200A4B5C681B685B185441084A136054609D
S21400113002F09CFD031E01D002F01EFD08B004BCA8
S2140011409046F0BDC8F5FF1F00800340D0F5FF1F96
S21400115008B5044B1B68044B802292045A60FFF7C4
S2140011608DFF08BD10E000E000ED00E008B5962316
S2140011701B02181C00F0BCF808BDC04600B585B0C0
S21400118001900091002303930EE0039A009B9A427D
S21400119000D310E0019B5A1C01921B78181C00F02B
S2140011A00FF8039B01330393019B002B03D0019B95
S2140011B01B78002BE9D1039B181C05B000BDC04668
S2140011C000B583B0021C6B4607331A706B460733B4
S2140011D01B78181C00F044F903B000BD82B0021C56
S2140011E06B4607331A70064B6A4607321278111C94
S2140011F01F220A40012191400A1C1A6002B0704763
S21400120000E100E082B0021C6B4607331A70074A02
S2140012106B4607331B78191C1F230B40012199408E
S2140012200B1C191C8023D15002B0704700E100E06F
S21400123082B0021C6B4607331A70084A6B460733A7
S2140012401B78191C1F230B40012199400B1C191CED
S214001250C0235B00D15002B07047C04600E100E0FA
S214001260C046704710B584B0021C6B4606331A8021
S2140012700E246C4400F018F8031C2380084B6A46C2
S214001280063212881A61074B6A46063212881A809E
S2140012901120FFF7A3FF024BD022DA6004B010BD86
S2140012A000800340D8F5FF1F024B5B689BB2181CFA
S2140012B07047C0460080034008B5072000F0F4FEE3
S2140012C0021C094B181C111C00F0AAFF00F0F2FBD0
S2140012D0064B00221A801120FFF7AAFF1120FFF705
S2140012E091FF02F08FFF08BDC0F00F40D8F5FF1F3A
S2140012F000B585B00190019B002B00D19BE04F49C3
S2140013004E4A4F4BD3588022D20013434C4A8B5040
S2140013104A494A4A4B4BD3584B4A13408022D20480
S2140013201343484A8B50494B484A526848490A4337
S2140013305A60464B454A926845490A439A600C20D3
S214001340802100F0F1F90C2000F0BEF9414B00229C
S2140013501A60414B0022DA703F4B00229A703E4BD7
S21400136000229A713C4B00229A723B4B0022DA72A2
S214001370394B00221A70384B00221A72364B002264
S2140013805A72019B1B013548191CFFF74DF8031CC8
S2140013901A1C0E236B441A802F4A0E236B441B889C
S2140013A0DBB253702C4A2C4B1B78DBB2D9B20E231F
S2140013B06B441B881B0A9BB2DBB2181C1F2303401E
S2140013C0DBB20B43DBB2DBB21370234A224B9B7AB1
S2140013D0DBB21F218B43DBB20F210B43DBB29372D0
S2140013E01D4A1D4B9B78DBB210218B43DBB29370FA
S2140013F0194A194B9B78DBB202218B43DBB2937000
S214001400154A154B1B78DBB220218B43DBB21370D9
S214001410114A114B1B79DBB21F210B43DBB2137150
S2140014200D4B00225A710C4A0B4BDB78DBB20C21B9
S2140014300B43DBB2D37005B000BDC046007004405D
S2140014403410000004100000FFFFFFF3009004407B
S21400145005020000DCF5FF1F00A00640006CDC0261
S21400146082B0021C6B4607331A70C046064B1B79C7
S214001470DBB2DBB25BB2002BF8DA034A6B4607330B
S2140014801B78D37102B0704700A0064010B5174B0A
S2140014901B79DBB29CB2221C0F23134007D0134BE0
S2140014A00F221A71114BDB79DF2323409CB20F4BBE
S2140014B0DB78DBB2DBB25BB2002B07DA0B4A0B4BF6
S2140014C0DB78DBB27F210B40DBB2D370221C2023FB
S2140014D013400AD0054BDB79DCB2054B1B68002BAA
S2140014E003D0034B1B68201C984710BD00A0064085
S2140014F0DCF5FF1F10B5164B1B79DBB29CB2221C25
S2140015000F23134004D0124BDB79DF2323409CB219
S2140015100F4BDB78DBB2DBB25BB2002B07DA0C4A90
S2140015200B4BDB78DBB27F210B40DBB2D370221C87
S214001530202313400AD0064BDB79DCB2054B1B6830
S214001540002B03D0034B1B68201C984710BDC046D9
S21400155000B00640E0F5FF1F10B5164B1B79DBB256
S2140015609CB2221C0F23134004D0124BDB79DF23DE
S21400157023409CB20F4BDB78DBB2DBB25BB2002BB6
S21400158007DA0C4A0B4BDB78DBB27F210B40DBB271
S214001590D370221C202313400AD0064BDB79DCB222
S2140015A0054B1B68002B03D0034B1B68201C984779
S2140015B010BDC04600C00640E4F5FF1F08B5062073
S2140015C000F000FA1D491D4A1D4BD3588022D20355
S2140015D013431B4A8B501B4B1A4AD2681A490A40BF
S2140015E0DA60184B174AD26818490A43DA60154B76
S2140015F0144A926814490A409A60124B114A92683B
S21400160012490A439A60124B114A52690E490A401F
S2140016105A610F4B0E4A52690C490A435A610D4BE8
S21400162012221A700B4B20229A700A4A094B1B781A
S214001630DBB240210B43DBB2137008BD00700440E0
S2140016403410000000C00440FFF8FFFF0002000155
S21400165000B004400060074082B0021C6B460733AF
S2140016601A706B4606330A1C1A70164BDB78DBB210
S214001670DBB25BB2002B01DA124B5B79C046114B32
S214001680DB78DBB21A1C20231340F8D00D4A6B46D9
S21400169007331B785371C0460A4BDB78DBB21A1C43
S2140016A020231340F8D0C046064BDB78DBB2DBB213
S2140016B05BB2002BF8DA034B5B79DBB2181C02B086
S2140016C07047C0460060074082B001900B490B4A45
S2140016D0C0235B00D358019A01209040021C1A4395
S2140016E0C0235B00CA50054B044A126801990120CA
S2140016F08840011C0A431A6002B0704700E100E00F
S21400170082B001900749074AC0235B00D358019A6C
S21400171001209040021C1A43C0235B00CA5002B04E
S2140017207047C04600E100E010B582B001900A1C88
S2140017306B4603331A706B4603331B78032B06D8AD
S2140017406B4603331B789A016B4603331A70019B72
S2140017509B08072B00D92DE19A00984BD3181B68DD
S2140017609F469749964AC0239B00D358019A032068
S2140017700240D200101CC0228240D2431A40C0232E
S2140017809B00CA508E488E4AC0239B00D3586A4698
S21400179003321278C0210A40019903242140C9006F
S2140017A08A401A43C0239B00C25004E18449844AFD
S2140017B0C1239B00D358019A03200240D200101C7C
S2140017C0C0228240D2431A40C1239B00CA507C48A4
S2140017D07B4AC1239B00D3586A4603321278C02145
S2140017E00A40019903242140C9008A401A43C123B4
S2140017F09B00C250DFE07249714AC2239B00D35857
S214001800019A03200240D200101CC0228240D2431C
S2140018101A40C2239B00CA506948694AC2239B00EB
S214001820D3586A4603321278C0210A40019903242D
S2140018302140C9008A401A43C2239B00C250BAE026
S2140018405F495F4AC3239B00D358019A0320024096
S214001850D200101CC0228240D2431A40C3239B00F1
S214001860CA505748564AC3239B00D3586A46033289
S2140018701278C0210A40019903242140C9008A40F9
S2140018801A43C3239B00C25095E04D494C4AC423DB
S2140018909B00D358019A03200240D200101CC0229D
S2140018A08240D2431A40C4239B00CA504448444A4C
S2140018B0C4239B00D3586A4603321278C0210A40DC
S2140018C0019903242140C9008A401A43C4239B007F
S2140018D0C25070E03A493A4AC5239B00D358019A51
S2140018E003200240D200101CC0228240D2431A407D
S2140018F0C5239B00CA503248314AC5239B00D358A3
S2140019006A4603321278C0210A4001990324214016
S214001910C9008A401A43C5239B00C2504BE02849A1
S214001920274AC6239B00D358019A03200240D200C0
S214001930101CC0228240D2431A40C6239B00CA50C5
S2140019401F481F4AC6239B00D3586A4603321278A4
S214001950C0210A40019903242140C9008A401A4345
S214001960C6239B00C25026E01549154AC7239B0094
S214001970D358019A03200240D200101CC022824095
S214001980D2431A40C7239B00CA500D480C4AC723AF
S2140019909B00D3586A460332127803210A40019905
S2140019A003242140C90006318A401A43C7239B00FE
S2140019B0C25000E0C04602B010BDC046E43A010086
S2140019C000E100E082B0021C6B4607331A70234920
S2140019D0224A234BD358802292001343204A8B502E
S2140019E06B4607331B780122134008D01B491B4A5D
S2140019F01B4BD3588022D2001343194A8B506B4698
S214001A0007331B780222134008D01449134A144B9C
S214001A10D358802212011343114A8B506B4607336A
S214001A201B780422134008D00C490C4A0C4BD358A0
S214001A308022520113430A4A8B506B4607331B78A9
S214001A400822134008D00549044A054BD358802283
S214001A5092011343024A8B5002B070470070044054
S214001A603810000008B50F4B0E4A126D0E490A409A
S214001A70E021C9000A431A650A4B0A4A12690A4954
S214001A800A40E021C9000A431A610849074AC123EF
S214001A909B00D358064A1A40C1239B00CA5000F048
S214001AA025F808BD00900440FFF8FFFE00E100E0C6
S214001AB0FFFF00FF034B034A126906218A431A619F
S214001AC07047C04600ED00E0074B074A1269042144
S214001AD08A431A61044B044A126902210A431A61B6
S214001AE0BFF34F8F30BF704700ED00E0EFF310807C
S214001AF062B670471C1C231C181CC04600B583B079
S214001B004F4A6B46073312781A704D4A6B460633B7
S214001B1052781A706B4607331B788222134004D023
S214001B20484B181C00F038FC87E06B4607331B78E0
S214001B305BB2002B04DA444B181C00F02DFC7CE052
S214001B406B4607331B780222134004D03F4B181C09
S214001B5000F022FC71E06B4607331B78202213400E
S214001B6004D03B4B181C00F017FC66E06B460733AE
S214001B701B784122134004D0364B181C00F00CFC96
S214001B805BE06B4607331B780122134004D0324BD0
S214001B90181C00F001FC50E06B4607331B7840220F
S214001BA0134004D02D4B181C00F0F6FB45E06B46A6
S214001BB007331B780422134004D0294B181C00F06E
S214001BC0EBFB3AE06B4607331B780822134004D041
S214001BD0244B181C00F0E0FB2FE06B4606331B7806
S214001BE00222134004D0204B181C00F0D5FB24E042
S214001BF06B4606331B780422134004D01B4B181C7C
S214001C0000F0CAFB19E06B4606331B780822134027
S214001C1004D0174B181C00F0BFFB0EE06B460633D3
S214001C201B782022134004D0124B181C00F0B4FB83
S214001C3003E0114B181C00F0AFFB03B000BDC0461C
S214001C4000F007409C300100BC300100D03001009D
S214001C50E4300100003101001C3101003431010084
S214001C60483101005C31010070310100883101000B
S214001C70A4310100BC310100D431010008B5024B8B
S214001C80181C00F089FB08BDEC31010008B5034BB9
S214001C90181C00F081FB00BE08BDC04634320100AF
S214001CA008B5034B181C00F077FB00BE08BDC04605
S214001CB05432010008B5034B181C00F06DFB00BE43
S214001CC008BDC0467032010008B5034B181C00F072
S214001CD063FB00BE08BDC046AC32010008B5034B2E
S214001CE0181C00F059FB00BE08BDC046C8320100F3
S214001CF008B5034B181C00F04FFB00BE08BDC046DD
S214001D00E432010008B5034B181C00F045FB00BE8A
S214001D1008BDC0460033010008B5034B181C00F090
S214001D203BFB00BE08BDC0467033010008B5034B40
S214001D30181C00F031FB00BE08BDC0468C33010005
S214001D4008B5034B181C00F027FB00BE08BDC046B4
S214001D50A833010008B5034B181C00F01DFB00BE9D
S214001D6008BDC046C433010008B5034B181C00F07C
S214001D7013FB00BE08BDC046E033010008B5034BA8
S214001D80181C00F009FB00BE08BDC0465034010018
S214001D9008B5034B181C00F0FFFA00BE08BDC0468D
S214001DA06C34010008B5034B181C00F0F5FA00BEB1
S214001DB008BDC046A434010008B5034B181C00F04B
S214001DC0EBFA00BE08BDC046C034010008B5034BA0
S214001DD0181C00F0E1FA00BE08BDC046DC34010065
S214001DE008B5034B181C00F0D7FA00BE08BDC04665
S214001DF0FC34010008B5034B181C00F0CDFA00BEF9
S214001E0008BDC0462035010008B5034B181C00F07D
S214001E10C3FA00BE08BDC0463C35010008B5034BFA
S214001E20181C00F0B9FA00BE08BDC04658350100BF
S214001E3008B5034B181C00F0AFFA00BE08BDC0463C
S214001E407435010008B5034B181C00F0A5FA00BE57
S214001E5008BDC0469035010008B5034B181C00F0BD
S214001E609BFA00BE08BDC046AC3501004E4A88232A
S214001E705B010021D1504D4B1B78DBB21A1C0123AD
S214001E8013400ED04A4B9B78DBB21A1C0823134033
S214001E9007D0474A464B9B78DBB208210B43DBB2A0
S214001EA09370444B28221A703F4A434B4349D15003
S214001EB03D4B3D4A1268C02109030A431A603A495D
S214001EC0394A3F4BD3588022520213433C4A8B5028
S214001ED03549354A3A4BD3583A4A13408022520481
S214001EE01343374A8B5030492F4A374BD3588022FA
S214001EF092001343344A8B50344B344A926C344924
S214001F000A409A64314B314AD26C31490A40DA644D
S214001F10304B00221A722F4B24225A702E4B8022EE
S214001F201A702C4B9B221A70C0462A4B9B79DBB248
S214001F301A1C02231340F8D0C046264B9B79DBB20E
S214001F401A1C10231340F8D1224A224BDB78DBB24E
S214001F501F210B40DBB2D3701E4B01221A711D4BA2
S214001F6000225A711B4A1B4B5B79DBB240210B43A4
S214001F70DBB25371C046174B9B79DBB21A1C402369
S214001F801340F8D0134A134B1B78DBB23F210B40AB
S214001F90DBB21370C0460F4B9B79DBB21A1C0C23C6
S214001FA013400C2BF7D170470070044000F0074038
S214001FB000D0074000E00740441000000000011079
S214001FC004100000FFFFFFFC3810000000900440E3
S214001FD0FFF8FFFE004006400050064008B5104BD4
S214001FE0181C0021802210F09DFF0E4B181C0021AB
S214001FF0802210F097FF1E20FFF782FB1E20FFF7BF
S21400200063FB1E200121FFF78FFB1F20FFF778FBE5
S2140020101F20FFF759FB1F200121FFF785FB08BD96
S214002020E8F5FF1F68F6FF1F00B585B00390029124
S2140020306B4607331A70029B0E4A934207D16B46D3
S21400204007331A7803990C4B9200D1500FE0029B8D
S2140020500A4A934207D16B4607331A780399084B0E
S2140020609200D15003E0074B181C00F095F905B01C
S21400207000BDC04600900440E8F5FF1F00C00440C5
S21400208068F6FF1F0036010084B0039001920B2310
S2140020906B440A1C1A700B236B441A78039B92003D
S2140020A00199D15004B0704782B0021C6B460733CA
S2140020B01A706B4607331B7801229A40131C181CB3
S2140020C002B0704782B001900A1C6B4603331A7048
S2140020D06B4603331A786B4603331978019B8900E5
S2140020E0CB580B491940019B9200D1506B460333E5
S2140020F01A786B4603331978019B8900CB588021E8
S21400210049041943019B9200D15002B07047C04663
S214002110FFFFF0FF82B001900A1C6B4603331A7073
S2140021206B4603331A786B4603331978019B890094
S214002130CB58802149041943019B9200D1506B462D
S21400214003331A786B4603331978019B8900CB5802
S2140021500A491940019B9200D1506B4603331A7806
S2140021606B4603331978019B8900CB5890210903ED
S2140021701943019B9200D15002B07047FFFFF0FF59
S21400218082B00190019BA0229B58181C02B0704799
S21400219082B001900A1C6B4603331A706B460333F9
S2140021A01A786B4603331978019B8900CB58802137
S2140021B049041943019B9200D15002B07047C046B3
S2140021C082B001900091019B5B69009AD2431A404D
S2140021D0019B5A6102B0704782B001900091019B4A
S2140021E05A69009B1A43019B5A6102B07047C04669
S2140021F082B001900091019B5A68009B1A43019B94
S2140022005A6002B07047C04682B001900091019BB0
S2140022109A68009B1A43019B9A6002B07047C046BA
S21400222082B001900091019BDA68009B1A43019BE3
S214002230DA6002B07047C04682B001900091019B00
S2140022401A68019B5B691A40019B1969019B5B69CF
S214002250DB430B401343009A1340181C02B0704730
S21400226000B583B01E4B181CFFF78AFF031C0093B3
S2140022706B46073300221A7027E06B4607331B783D
S21400228001229A40131C1A1C009B134016D06B4662
S21400229007331A78134B9200D358002B0ED06B4698
S2140022A007331A780F4B9200D35898470C4A6B4660
S2140022B007331B78101C191CFFF76AFF6B460733A1
S2140022C01A786B46073301321A706B4607331B7851
S2140022D01F2BD2D91E20FFF713FA03B000BDC0464D
S2140022E000900440E8F5FF1F00B583B01E4B181C95
S2140022F0FFF746FF031C00936B46073300221A7055
S21400230027E06B4607331B7801229A40131C1A1CE1
S214002310009B134016D06B4607331A78134B920077
S214002320D358002B0ED06B4607331A780F4B92000B
S214002330D35898470E4A6B4607331B78101C191C57
S214002340FFF726FF6B4607331A786B4607330132D2
S2140023501A706B4607331B781F2BD2D91F20FFF746
S214002360CFF903B000BDC0460090044068F6FF1FDA
S21400237000C0044000B585B0039002910192019B15
S214002380002B05D0029A019B101C191CFEF7F6FEC6
S2140023900023181C05B000BD0FB400B583B005AB14
S2140023A000930849049A009B081C111C1A1C00F094
S2140023B093F9031C0193019B181C03B008BC04B0DE
S2140023C01847C0460CF0FF1F00B583B00190019B74
S2140023D0181C10F007FE021C019B181C111CFEF7AF
S2140023E0CDFE0A20FEF7ECFE0023181C03B000BD4D
S2140023F000B583B00190019BDBB2181CFEF7E0FE2F
S214002400019B181C03B000BD84B001900023039309
S214002410019B1B680293029B1B78203B102B1DD848
S2140024209A00144BD3181B689F46039B0122134344
S214002430039318E0039B06221343039313E0039BC6
S2140024400222134303930EE0039B082213430393D5
S21400245009E0039B10221343039304E0019B029AB6
S2140024601A60039B03E0029B01330293D3E7181C18
S21400247004B07047043B010086B00190002305932A
S214002480019B1B6804930EE0059A131C9B009B1887
S2140024905B001A1C0F236B441B78D318303B059344
S2140024A0049B013304930F236B44049A12781A702A
S2140024B00F236B441B782F2B04D90F236B441B78F8
S2140024C0392BE1D9019B049A1A60059B181C06B0AB
S2140024D07047C04610B586B0039000920193039BE8
S2140024E01B6805931DE0059B013B0593009B019C23
S2140024F0181C211C0A220023FEF718F91C1C131CAA
S214002500DBB23033DAB2059B1A70009B019C181CB4
S214002510211C0A220023FEF709F9031C0C1C009359
S2140025200194009B019A1343DDD1039B1B681A1C80
S214002530059BD31A0493039B059A1A60049B181CE8
S21400254006B010BD30B589B00390009201930C9A86
S2140025508023DB01134001D0154B00E0154B06939A
S214002560039B1B68079312E0079B013B0793009BA6
S2140025700F221340069AD3181A78079B1A70009AEF
S214002580019B190714090C431D0900940195009B33
S214002590019A1343E8D1039B1B681A1C079BD31AA6
S2140025A00593039B079A1A60059B181C09B030BD5B
S2140025B0403601005436010030B587B003900092D3
S2140025C00193039B1B68059315E0059B013B059350
S2140025D0009A019B131CDBB207221340DBB2303398
S2140025E0DAB2059B1A70009A019B5907D4080C436F
S2140025F0DD0800940195009B019A1343E5D1039BE7
S2140026001B681A1C059BD31A0493039B059A1A6031
S214002610049B181C07B030BD10B584B00190009123
S21400262012E0019B1C68019B5A68124B101C191C77
S2140026301022A047031C0393039B002B01D0039B8F
S21400264015E0009B103B0093009B102BE9D8009BE5
S214002650002B01D100230AE0019B1C68019B5968EE
S214002660044A009B081C111C1A1CA047031C181CBB
S21400267004B010BD2C3D010010B584B0019000914F
S21400268012E0019B1C68019B5A68124B101C191C17
S2140026901022A047031C0393039B002B01D0039B2F
S2140026A015E0009B103B0093009B102BE9D8009B85
S2140026B0002B01D100230AE0019B1C68019B59688E
S2140026C0044A009B081C111C1A1CA047031C181C5B
S2140026D004B010BD3C3D010030B5B5B00590049186
S2140026E0039200233393049B149300F06BFC0023A7
S2140026F0319301235B423093149B1F9302E0149B9B
S21400270001331493149A7B236B4412781A707B233C
S2140027106B441B78002B04D07B236B441B78252B43
S214002720EDD1149A1F9B9A421BD0059B1C68059BF3
S2140027305A68149B191C1F9BCB1A1D1C1F9B101C30
S214002740191C2A1CA047031E03D001235B4200F07D
S21400275040FC149B1A1C1F9BD31A1A1C339B9B18F5
S2140027603393149B1B78002B02D1339B00F031FC73
S214002770149B01331493149B1B78002B02D1339BBC
S21400278000F027FC14AB181CFFF73EFE031C329328
S214002790149B1B78302B0AD9149B1B78392B06D830
S2140027A014AB181CFFF768FE031C319317E0149B4C
S2140027B01B782A2B13D1039B1A1D03921B681D93AB
S2140027C01D9B002B06DA329B0122134332931D9B7E
S2140027D0319301E01D9B3193149B01331493149B9A
S2140027E01B782E2B1DD1149B01331493149B1B783E
S2140027F02F2B0AD9149B1B78392B06D814AB181C20
S214002800FFF73AFE031C30930BE0149B1B782A2B31
S21400281007D1149B01331493039B1A1D03921B6864
S2140028203093149B1B786C2B13D1149B0133149399
S214002830149B1B786C2B07D1329B80221343329358
S214002840149B013314931BE0329B60221343329394
S21400285016E0149B1B78682B12D1149B013314933B
S214002860149B1B78682B07D1329B2022134332938C
S214002870149B0133149303E0329B4022134332939C
S214002880149B1B78782B00D973E09A00C34BD3189F
S2140028901B689F46329BA42292011343329368E042
S2140028A0329B902212011343329362E0329B8822BD
S2140028B05201134332935CE0329BC8225201134309
S2140028C0329356E0329BB222D2011343329350E049
S2140028D0329B80229200134332934AE0329B84223A
S2140028E0D2011343329344E0329B822212021343F6
S2140028F032933EE0329BC22212021343329338E0F8
S214002900329B812252021343329332E0329BA12241
S2140029105202134332932CE0329BC12252021343DD
S214002920329326E0329BE12252021343329320E098
S214002930329BA022D200134332931AE0329B8022AD
S214002940D2001343329314E0329BC022920013430A
S21400295032930EE0329BE022D2001343329308E01B
S214002960329BC022D2001343329302E0339B00F026
S21400297030FB149B01331493329AE023DB001340A0
S2140029808022D200934200D1DFE18022D20093421F
S21400299009D880225200934226D0C0229200934249
S2140029A000D136E20EE3C022D20093420AD0E022E3
S2140029B0D200934200D1FCE2A022D200934200D182
S2140029C0AEE2FFE2059B1C68059B5A68744B101C20
S2140029D0191C0122A047031E02D001235B42F8E225
S2140029E0339B01333393EDE200232F9300232E9382
S2140029F00EAB16330D9300232D9300231C93002358
S214002A0000242893299400232793309B002B02DA76
S214002A100123309303E0329B102293433293329A81
S214002A2080239B01134055D0002300242493259433
S214002A30329BE0221340402B14D004D8002B1BD02E
S214002A40202B05D034E0602B1ED0802B24D02FE026
S214002A50039B1A1D03921B68DBB25BB22493DB1741
S214002A60259325E0039B1A1D03921B689BB21BB29D
S214002A702493DB1725931BE0039B1A1D03921B6808
S214002A802493DB17259313E0039B1A1D03921B6800
S214002A902493DB1725930BE0039B0733072293430E
S214002AA01A1C083203925C681B6824932594C0465F
S214002AB0259B002B09DA2499259A00244B42944141
S214002AC0289329940123279342E0249B259C28934E
S214002AD029943DE0329BE0221340402B13D004D8CB
S214002AE0002B19D0202B05D032E0602B1CD0802B79
S214002AF022D02DE0039B1A1D03921B68DBB228939D
S214002B000023299324E0039B1A1D03921B689BB2A3
S214002B102893002329931BE0039B1A1D03921B682E
S214002B2028930023299313E0039B1A1D03921B6826
S214002B302893002329930BE0039B07330722934334
S214002B401A1C083203925C681B6828932994C046B6
S214002B50329AC0235B01134080225201934212D066
S214002B60C022520193421DD080221201934226D1E8
S214002B700DAA289B299C101C1A1C231CFFF7AAFCD4
S214002B80031C2D931BE00DAA289B299C101C1A1CC5
S214002B90231CFFF711FD031C2D9310E0483B01009A
S214002BA0683601000DA9289B299C329A0092081CC1
S214002BB01A1C231CFFF7C6FC031C2D93C0461C9A48
S214002BC02D9BD3181C93309A2D9B9A4203D9309A8A
S214002BD02D9BD31A00E000232C93329BBC4A134053
S214002BE0BC4A934204D12C9B002B01D101232C9389
S214002BF01C9A2C9BD3181C93329BB54A1340B44A9C
S214002C0093420FD1289B299A13430BD002232E936D
S214002C10329A8023DB01134002D0AF4B2F9301E0A2
S214002C20AE4B2F93329A80239B01134019D0279BDB
S214002C30002B04D0AA4B2F9301232E9311E0329B36
S214002C4006221340022B02D0062B05D009E0A54B26
S214002C502F9301232E9304E0A34B2F9301232E934F
S214002C60C0461C9A2E9BD3181C93319A1C9B9A42E2
S214002C7003D9319A1C9BD31A00E000232B93329B76
S214002C800122134015D1329B1022134006D02C9AF5
S214002C902B9BD3182C9300232B930AE0059A2B9B8F
S214002CA0101C191CFFF7B8FC031E02D001235B4260
S214002CB08FE12E9B002B0ED0059B1C68059B596848
S214002CC02F9A2E9B081C111C1A1CA047031E02D00C
S214002CD001235B427DE1339A2E9BD3183393059AEA
S214002CE02C9B101C191CFFF7C7FC031E02D00123E7
S214002CF05B426EE1339A2C9BD3183393059B1C687A
S214002D00059B59680D9A2D9B081C111C1A1CA04780
S214002D10031E02D001235B425BE1339A2D9BD3183E
S214002D203393329B012213400AD0059A2B9B101C2A
S214002D30191CFFF771FC031E02D001235B4248E119
S214002D40339A2B9BD31833933CE1039B1A1D0392B3
S214002D501B682293229B002B0ED0229B219302E01D
S214002D60219B01332193219B1B78002BF8D1219ABC
S214002D70229BD31A239303E05C4B229306232393D0
S214002D80309B002B05DB309A239B9A4201D2309B66
S214002D902393319A239B9A4203D9319A239BD31AC1
S214002DA000E000231B93329B012213400AD1059AB0
S214002DB01B9B101C191CFFF72FFC031E02D00123BF
S214002DC05B4206E1059B1C68059B5968229A239B7B
S214002DD0081C111C1A1CA047031E02D001235B42CC
S214002DE0F7E0339A239BD3183393329B0122134088
S214002DF00AD0059A1B9B101C191CFFF70DFC031E1E
S214002E0002D001235B42E4E0339A1B9BD318339332
S214002E10D8E0039B1A1D03921B681893002319938E
S214002E2008AB1333079307A9189B199C329A009294
S214002E30081C1A1C231CFFF785FB031C2093209BF1
S214002E40002B08D1079B013B0793079B30221A7083
S214002E50209B01332093079B013B0793079B782217
S214002E601A70079B013B0793079B30221A70079B3B
S214002E70013B0793079B23221A70209B0333209362
S214002E80319A209B9A4203D9319A209BD31A00E0AC
S214002E9000231793329B012213400AD1059A179BF1
S214002EA0101C191CFFF7B8FB031E02D001235B425F
S214002EB08FE0059B1C68059B5968079A209B081C99
S214002EC0111C1A1CA047031E12D001235B4280E08F
S214002ED008180000081000006C360100703601006B
S214002EE074360100783601007C3601008036010019
S214002EF0339A209BD3183393329B012213400AD077
S214002F00059A179B101C191CFFF786FB031E02D0A0
S214002F1001235B425DE0339A179BD318339351E04D
S214002F20039B1A1D03921B68DAB21B236B441A70AC
S214002F30319B012B02D9319B013B00E00023169305
S214002F40329B012213400ED1059A169B101C191CA9
S214002F50FFF762FB031E02D001235B4239E0339A7F
S214002F60169BD3183393059B1C68059B5A681B2336
S214002F706B44101C191C0122A047031E02D001231B
S214002F805B4226E0339B01333393329B012213408E
S214002F900AD0059A169B101C191CFFF73DFB031E52
S214002FA002D001235B4214E0339A169BD318339366
S214002FB008E0039B1A1D03921B681593339A159B12
S214002FC01A60C046149B1B78002B01D0FFF78FFBBE
S214002FD0339B181C35B030BD00B583B06B46181C4B
S214002FE0002108220FF09EFF6A46074B111C1A1C90
S214002FF00823081C111C1A1C0FF00AFF6B46181C2D
S2140030000BF0DCF803B000BD100A002070B58AB0E3
S214003010FEF728FDFDF73EFE0F20FEF7D3FCFEF779
S214003020A5F8FDF72DFF01F0B7F8FEF767FDFEF7F0
S214003030D5FF01F063F9042001F06AF95D4BC12267
S2140030401A705C4B0C225A705A4B00229A70594BDD
S2140030500022DA70574B00221A71564B00225A7122
S214003060544B61229A71534B4E22DA7100F012FFD4
S214003070514B181C002100F03FFE00F0F3FBFEF75A
S2140030809DFAFFF7A9FF012001F042F94B4B1B68A0
S2140030909847042001F050F9494B181CFFF77CF9BB
S2140030A0484A444B111C1A1C0823081C111C1A1CE5
S2140030B00FF0AEFE0BF06AFD0BF0A8FB424B1B6850
S2140030C0424A101C191CFFF767F9414B1D68414B1B
S2140030D01C68404BDB699847031E0AD03D4BDB69F2
S2140030E09847031C8020191CFDF72EFA031C1E1C93
S2140030F000E08026384A2A230093101C291C221C34
S214003100331CFFF749F90BF041FD344B181C002126
S21400311000F0F2FD324B181CFFF73EF901235B422C
S214003120181C05F04FFB031C08930023099313E0BB
S214003130099B5B00089AD3189B78191C099B5B00B7
S2140031400133089AD3189B781A1C264B181CFFF7D5
S21400315023F9099B01330993099B062BE8DD089B9D
S2140031601B7C191C089B5B7C1A1C1F4B181CFFF74A
S21400317013F9022001F0CCF800F01CFC012001F04D
S214003180DBF81A4B181C00F0D1FAFDF77FFD022081
S21400319001F0D2F8FDF77CFD00F04EFF021C1F2365
S2140031A06B441A701F236B441B78002BF2D1FEF77A
S2140031B08BFCEFE7100A002024F0FF1F083F0100F9
S2140031C088360100280A0020603D0100BC36010058
S2140031D0B03E0100D83E0100C8360100A8F0FF1F2F
S2140031E0FC360100203701002C370100DC3A0100D4
S2140031F008B500F047F8FEF7E1F90C20FEF754FF9B
S214003200021C1C4B181C111CFEF7DAFF1A4A1B4B3B
S214003210101C0C211A1CFEF737FF0D20FEF744FF8A
S214003220021C144B181C111CFEF7CAFF124A134B43
S214003230101C0D211A1CFEF727FF0520FEF734FF91
S214003240021C0C4B181C111CFEF7BAFF0A4A0B4B4B
S214003250101C05211A1CFEF717FF094B064A181CFE
S214003260111C0522FEF7E0FE034B181C0521FEF795
S21400327029FF08BD00F00F40009004400001000147
S214003280A91C010008B50020FEF70EFF021C214B0A
S214003290181C111CFEF7A0FF1F4A204B101C002113
S2140032A01A1CFEF7F1FE1E4B00221A700820FEF7CD
S2140032B0FBFE021C1B4B181C111CFEF78DFF1A4A46
S2140032C0164B101C08211A1CFEF7DEFE1120FEF716
S2140032D0EBFE021C154B181C111CFEF771FF144A5E
S2140032E00E4B101C11211A1CFEF7CEFE0020FEF716
S2140032F0DBFE021C074B181C111CFEF779FF08208A
S214003300FEF7D2FE021C074B181C111CFEF770FFBE
S21400331008BDC046C0F00F4000C0044000010001D8
S214003320E8F6FF1F40F00F4000A0044080F00F407A
S21400333000B0044008B500F0A3F80020FEF7B4FE85
S214003340021C0F4B181C111CFEF752FF0820FEF73C
S214003350ABFE021C0B4B181C111CFEF755FF002081
S214003360FDF782FE0820FEF79FFE021C054B181C88
S214003370111CFEF73DFF044B00221A7008BDC04624
S214003380C0F00F4040F00F40E8F6FF1F014B1B78DF
S214003390181C7047E8F6FF1F10B582B0344B1B7838
S2140033A0002B62D16B469C1DFDF77EFF031C23801D
S2140033B0002300930020FEF777FE021C2D4B181CFE
S2140033C0111CFEF721FFFDF763FC40E0FDF76CFFE4
S2140033D0031C1A1C6B4606331B889B1A9BB2413390
S2140033E09BB299B26B4606336A46063212881A803A
S2140033F00BB2002B2BDAFDF74BFC009B002B21D1E8
S2140034003D2000F04FF80020FEF74EFE021C194B40
S214003410181C111CFEF7ECFE3220FDF7F5FD00200F
S214003420FEF742FE021C134B181C111CFEF7ECFEA6
S214003430009B013300936B469C1DFDF735FF031C74
S214003440238004E00C4B181CFEF7A6FF0AE01120B0
S214003450FEF72AFE021C094B181C111CFEF7ECFE98
S214003460031EB3D1024B01221A7002B010BDC04633
S214003470E8F6FF1FC0F00F403837010080F00F401D
S21400348008B50020FEF710FE021C044B181C111C89
S214003490FEF7AEFE024B00221A7008BDC0F00F40C9
S2140034A0E8F6FF1F00B583B0021C6B4607331A70A0
S2140034B06B4607331B78181C0021FEF7CDF8031C5B
S2140034C0181C03B000BDC04610B584B001900A1C9D
S2140034D06B4603331A700E246C447F20FFF7E2FF1E
S2140034E0031C23706B4603331B78181CFFF7DAFFA8
S2140034F00F236B4400221A700FE00F236B441B78D7
S214003500019AD3181B78181CFFF7CCFF0F236B44C7
S2140035101A780F236B4401321A700F226A446B46E6
S214003520033312781B789A42E7D30E236B441B783A
S214003530181C04B010BDC04610B584B001900A1C1B
S2140035406B4603331A70FF20FFF7ACFF0F236B4464
S21400355000221A7010E00F236B441B78019AD418CF
S2140035600020FFF79FFF031C23700F236B441A787D
S2140035700F236B4401321A700F226A446B460333E2
S21400358012781B789A42E6D3FDF782FB04B010BD92
S21400359008B50D20FEF788FD021C064B181C111CF2
S2140035A0FEF74AFE031E01D0012300E00023181C8C
S2140035B008BDC04600F00F4008B5054B181C052195
S2140035C0FEF7E6FD024B181C0521FEF7A3FD08BD1D
S2140035D00090044008B5074B181C0521FEF7D8FDDF
S2140035E0054BDB78DBB2DBB25BB2002B01DA024BB9
S2140035F05B7908BD009004400060074008B50520D0
S214003600FEF7E0F9184A194B101C12211A1CFEF797
S2140036103BFD1220FEF748FD021C154B181C111C22
S214003620FEF7DAFD104A114B101C13211A1CFEF788
S2140036302BFD1320FEF738FD021C0D4B181C111C29
S214003640FEF7CAFD0B4A094B101C01211A1CFEF797
S2140036501BFD0120FEF728FD021C074B181C111C41
S214003660FEF7BAFD08BDC04600A0044000010001F8
S21400367040F00F4000C00440C0F00F4000B583B0DB
S214003680021C6B4607331A706B4607331B78012201
S214003690134009D01320FEF707FD021C214B181C0F
S2140036A0111CFEF7B1FD08E01320FEF7FDFC021C1E
S2140036B01C4B181C111CFEF79BFD6B4607331B7832
S2140036C00222134009D00120FEF7EEFC021C164B26
S2140036D0181C111CFEF798FD08E00120FEF7E4FC1C
S2140036E0021C114B181C111CFEF782FD6B4607339B
S2140036F01B780422134009D01220FEF7D5FC021CCA
S214003700084B181C111CFEF77FFD08E01220FEF780
S214003710CBFC021C034B181C111CFEF769FD03B002
S21400372000BDC04640F00F40C0F00F4000B585B069
S2140037300190002303930BE0039B9B00019AD31890
S2140037401B68181C002100F0D7FA039B0133039373
S214003750039B9B00019AD3181B68002BECD105B085
S21400376000BDC04600B589B0039001920B236B44A0
S2140037700A1C1A701B236B4401221A70039B1B88B9
S214003780002B02D04A2B20D05BE0334B1B68181C62
S21400379000F0F4FD031C07930AE0079B1A1D079B25
S2140037A09B68101C191C00F021FA079B1B680793E6
S2140037B0079B002BF1D1294B01221A701B236B4467
S2140037C000221A70039B4A221A801B236B441B7824
S2140037D0002B04D00B236B441B78882B01D00123CD
S2140037E037E01D4B1B68181C00F0C8FD031C079330
S2140037F023E0079B1A1D019B9A421BD1164B1A68A1
S214003800079B101C191C00F00DFE154B1B6805933A
S214003810079B5A69124B1A60079B9B69002B05D0C1
S214003820079B9A69079BDB69181C90470C4B059A07
S2140038301A6005E0079B1B680793079B002BD8D1EF
S214003840BCE71B236B4400221A70039B00221A80DD
S2140038500323181C09B000BD14F0FF1FF0F6FF1F6D
S21400386000F7FF1F08B5074B00221A70064B1B68AF
S214003870181C00F07BFD054B181C002100F03CFADC
S21400388008BDC046F0F6FF1F14F0FF1F18F0FF1F1C
S21400389010B586B00590049103920293054B1B6801
S2140038A005980499039A029C0093231C00F004F8E0
S2140038B006B010BD00F7FF1F00B587B00390029159
S2140038C001920093039B089A5A61039B019A9A619E
S2140038D0039B009ADA61104B1B78002B10D00F4B1D
S2140038E01B6805930D4B0E4A1A60039B1A1D029B1C
S2140038F0101C191C00F07AF9084B059A1A6002E0B1
S214003900039B029A9A60074B1A68039B101C191CAB
S21400391000F054FD07B000BDF0F6FF1F00F7FF1FD4
S21400392018F0FF1F14F0FF1F00B585B001900D4B77
S2140039301B78002B0DD00C4B1B6803930A4B0B4ACD
S2140039401A60019B0433181C00F060F9064B039ABA
S2140039501A60074B1A68019B101C191C00F02EFDFC
S21400396005B000BDF0F6FF1F00F7FF1F18F0FF1FA1
S21400397014F0FF1F00B583B001900C4B1B78002B92
S21400398005D0019B0433181C00F07AF905E0019B72
S2140039900022DA60019B00221A61054B1A68019B1F
S2140039A0101C191C00F03EFD03B000BDF0F6FF1F12
S2140039B014F0FF1F7047C04600B585B01C4B1B684F
S2140039C0002B03D11B4B00221A602FE0FDF700FBF3
S2140039D0031C0193164B1B680293029B1A68029BFA
S2140039E05B68D218019BD31A0393029B9B680293D1
S2140039F014E0029B1A68029B5B68D218019BD21ADD
S214003A00039B9A4207D2029B1A68029B5B68D218F5
S214003A10019BD31A0393029B9B680293029B002B85
S214003A20E7D1019A039BD218024B1A6005B000BD7D
S214003A30F4F6FF1FF8F6FF1F00B589B00390019259
S214003A400B236B440A1C1A7017236B4401221A704E
S214003A50039B1B88002B02D0592B0AD07FE0454BD6
S214003A6000221A6017236B4400221A70039B592207
S214003A701A8017236B441B78002B01D1012376E0B4
S214003A800B236B441B78872B2DD1019B049304E0FA
S214003A90384B1B689A68374B1A60364B1B68002BEE
S214003AA005D0344B1B68DA68049B9A42F0D0314B41
S214003AB01B68002B16D02F4B1B6807930EE0079B46
S214003AC09B68DA68049B9A4205D1079B9B689A68B4
S214003AD0079B9A6002E0079B9B680793079B9B687F
S214003AE0002BECD13AE00B236B441B78822B00D0E2
S214003AF034E0002306931F4B1B6807932BE0079BBD
S214003B00181C00F0C7FB031E20D0079BDA68079B33
S214003B10101C88211A1C00F0A7FA031E14D1079B5C
S214003B200022DA60069B002B04D0079B9A68069B4F
S214003B309A6003E0079B9A680E4B1A60079B002268
S214003B409A60FFF739FFD4E700F016F8079B069354
S214003B50079B9B680793079B002BD0D182E7172310
S214003B606B4400221A70039B00221A800323181C41
S214003B7009B000BDF4F6FF1F08B5024B181C00F094
S214003B80E9FA08BD24F0FF1F00B585B00190FFF7E5
S214003B90F3FF019BDB68002B14D0124B1B680393CA
S214003BA00DE0039A019B9A4206D10F4B1A68019BBF
S214003BB0DA60FFF701FF12E0039B9B680393039B09
S214003BC0002BEED1084B1A68019BDA60054B1A6889
S214003BD0019B9A60034B019A1A60FFF7EDFE05B051
S214003BE000BDC046F4F6FF1F00F7FF1F00B583B008
S214003BF001900091019A009B101C191C00F026FBF6
S214003C00019B181CFFF7C0FF03B000BD00B583B0D2
S214003C100190019B181C00F027FB019B181CFFF766
S214003C20B3FF03B000BDC04600B583B00190019B52
S214003C30181C00F025FB019B181CFFF7A5FF03B01E
S214003C4000BDC04682B00190019BDB685A425341DA
S214003C50DBB2181C02B0704782B00190019B1A6854
S214003C60019B5B68D318181C02B07047034B1B6897
S214003C705A1E9341DBB2181C7047C046F4F6FF1F6D
S214003C8000B585B00190164B1B68019A9A4207D181
S214003C90134B1B689A68124B1A60FFF78DFE17E0ED
S214003CA00F4B1B68039302E0039B9B680393039BE5
S214003CB0002B04D0039B9A68019B9A42F4D1039B85
S214003CC0002B05D0019B9A68039B9A60FFF774FE51
S214003CD0019B00229A60019B0022DA6005B000BDBD
S214003CE0F4F6FF1F034B1B785A1CD1B2014A117021
S214003CF0181C704704F7FF1F00B585B001900091AF
S214003D00144B1B68039302E0039B1B680393039A00
S214003D10019B9A4202D0039B002BF5D1039A019B8C
S214003D209A4200D113E00B4B1A68019B1A60094BAC
S214003D30019A1A60019B01229A72019B00221A8145
S214003D40019A009B101C81211A1C00F0E7F905B0AF
S214003D5000BDC046FCF6FF1F10B584B00190009170
S214003D602B4B1B6803932B4B1C6800E02468019BBD
S214003D709C4201D0002CF9D1002C00D146E0019BDA
S214003D80181C00F0FFF9031E24D0019B00229A7233
S214003D90204B1C6809E0019BA34205D0019B201C18
S214003DA087211A1C00F038F82468002CF3D1019BF8
S214003DB05B68002B0ED0019A009B9A420AD0144BE7
S214003DC0019A1A60019B5B68019A0832101C8321D5
S214003DD0002298470F4B1B68019A9A4205D10D4B5B
S214003DE01B681A680B4B1A600DE00A4B1C6808E04B
S214003DF02268019B9A4203D1019B1B68236002E064
S214003E002468002CF4D1024B039A1A6004B010BD4B
S214003E1000F7FF1FFCF6FF1F00B587B00390019266
S214003E200B236B440A1C1A70039B9B7A1A1C0123F3
S214003E3013402AD0039B5B68002B26D0144B039AB2
S214003E401A60039B02229A72039B5B68039A0832ED
S214003E50101C0B226A441178019A9847031C05939C
S214003E60059B022B07D0059B032B04D00B236B442A
S214003E701B78832B06D1039A039B101C191CFFF793
S214003E806BFF02E0039B01229A7207B000BDC0469A
S214003E9000F7FF1F0A4B8A221A700A4B00221A707C
S214003EA0084B1A78084B1A70084B00221A70084BF9
S214003EB000221A60064B1A68064B1A607047C04606
S214003EC004F7FF1F06F7FF1F05F7FF1F180A00205D
S214003ED0FCF6FF1F00F7FF1F00B583B00F4B002254
S214003EE01A700F4B1B68019312E0019BDB7A002BC4
S214003EF00BD0019B01229A72019B0022DA72019B71
S214003F00181C82210022FFF787FF019B1B68019384
S214003F10019B002BE9D103B000BDC04668F7FF1F28
S214003F20FCF6FF1F08B53A4B1B78002B6FD0394BB9
S214003F301B78191C384A0B1C5B005B189B009A5CAC
S214003F40364B1A70334B1B78191C334A0B1C5B001C
S214003F505B189B00D3185A68314B1A602D4B1B78A0
S214003F60191C2D4A0B1C5B005B189B00D3180833EA
S214003F701A682C4B1A60274B1B7801332A4A1340C9
S214003F8004D5013B0822524213430133DAB2214BD7
S214003F901A701F4B1B78013BDAB21D4B1A70214B6F
S214003FA01B68002B20D1214B1A68214B1A6016E0A3
S214003FB0204B1B78DBB2002B01D0FFF78DFF1C4B8C
S214003FC01968164B1A78164B1B68081C111C1A1C0D
S214003FD0FFF722FF164B1B681A68154B1A60144B26
S214003FE01B68002BE4D112E00C4B1B78812B03D10D
S214003FF00C4B1B6801229A720A4B1968074B1A78F9
S214004000074B1B68081C111C1A1CFFF705FF08BD90
S21400401005F7FF1F06F7FF1F08F7FF1F69F7FF1FCB
S2140040206CF7FF1F70F7FF1F07000080FCF6FF1FEE
S21400403074F7FF1F68F7FF1F08B5094B1B78DBB244
S214004040002B01D0FFF748FFFFF76CFF054B1B78EE
S2140040501A1C034B1B78DBB2D318181C08BDC046CD
S21400406068F7FF1F05F7FF1F84B0039001920B232C
S2140040706B440A1C1A70244B1B78082B01D10123B1
S2140040803EE0224B1A78204B1B78D318DBB207226F
S2140040901340DAB21E4B1A701D4B1B78191C1D4AB2
S2140040A00B1C5B005B189B000B2169440978995434
S2140040B0174B1B78191C174A0B1C5B005B189B00E0
S2140040C0D318019A5A60124B1B78191C114A0B1C04
S2140040D05B005B189B00D3180833039A1A600A4BE0
S2140040E01B780133DAB2084B1A70074B1A780A4B62
S2140040F01B789A4203D9044B1A78074B1A70002390
S214004100181C04B07047C04605F7FF1F06F7FF1FD0
S21400411078F7FF1F08F7FF1F180A002000B587B0C2
S214004120039001920B236B440A1C1A70084B1B6801
S214004130059303990B236B441A78019B081C111CEA
S2140041401A1CFFF769FE024B059A1A6007B000BDFD
S21400415000F7FF1F82B00190019B002B0DD0019B42
S2140041609B7A012B03D0019B9B7A022B05D1019BE6
S2140041700122DA72024B01221A7002B07047C04662
S21400418068F7FF1F82B00190019B9B7A5A1E9341ED
S214004190DBB2181C02B0704708B5FDF761F808BD21
S2140041A000B587B00390081C111C01930A236B44CA
S2140041B0021C1A8002AB0A1C1A8000230593104BBF
S2140041C01B68002B01D101230593039B019A5A60BB
S2140041D0039B089A9A60039B0A226A4412881A80F4
S2140041E0074B039A1A60059B012B05D10A236B44E3
S2140041F01B88181CFDF736F80023181C07B000BDF6
S2140042007CF7FF1F00B583B00F4B1B68002B00D157
S21400421018E00D4B1B6801930B4B00221A60019BA4
S2140042205A68019B9B680199081C191C9047064B0D
S2140042301B68002B05D0044B1B681B88181CFDF759
S21400424011F8C04603B000BD7CF7FF1F00B583B071
S21400425001900091019B009A5A60FCF7B9FE021C7F
S214004260019B1A6003B000BD82B00190019B1A68E2
S214004270019B5B68D218019B1A6002B07047C0466B
S21400428000B583B00190FCF7A3FE021C019B1A60E8
S21400429003B000BD00B585B00190FCF799FE021C86
S2140042A0019B1B68D31A01330393019B5A68039B37
S2140042B09A429B415B42DBB2181C05B000BDC0466B
S2140042C000B585B0021C6B4607331A700A4B197886
S2140042D00F236B446A46073212784A401A70064B20
S2140042E06A46073212781A70034B1B78181CFFF7C1
S2140042F0C5F905B000BDC04680F7FF1F08B5FFF73B
S2140043007DF9024B00221A7008BDC04680F7FF1FD9
S21400431000B583B0021C6B4607331A70054B1A783B
S2140043206B4607331B781343DBB2181CFFF7C8FF36
S21400433003B000BD80F7FF1F00B583B0021C6B46BC
S21400434007331A706B4607331B78DB43D9B2064B2C
S2140043501B78DAB20B1C1340DBB2DBB2181CFFF77B
S214004360AFFF03B000BDC04680F7FF1F82B00190CC
S214004370019B00221A6002B07047C04682B00190CE
S214004380019B1B68181C02B07047C04684B00190A1
S214004390019B1B68002B01D100230BE0019B1B68CF
S2140043A0039302E0039B1B680393039B1B68002B8D
S2140043B0F8D1039B181C04B07047C04600B585B002
S2140043C001900091019A009B101C191C00F02AF81D
S2140043D0009B00221A60019B181CFFF7D7FF031CE6
S2140043E00393039B002B03D1019B009A1A6002E003
S2140043F0039B009A1A6005B000BDC04600B583B0A6
S21400440001900091019A009B101C191C00F00AF8FC
S214004410019B1A68009B1A60019B009A1A6003B001
S21400442000BDC04684B001900091019B1B68002B24
S21400443000D121E000230293019B1B68039318E040
S214004440039A009B9A420FD1029B002B04D1039B38
S2140044501A68019B1A6003E0039B1A68029B1A60A5
S214004460039B00221A6007E0039B0293039B1B68D2
S2140044700393039B002BE3D104B0704784B00190F4
S21400448000230293019B1B68039305E0029B013304
S2140044900293039B1B680393039B002BF6D1029B9E
S2140044A0181C04B07047C04682B00190019B002BD8
S2140044B002D0019B1B6800E00023181C02B0704766
S2140044C082B0021C6B4607331A7001AB0A1C1A80B6
S2140044D06B4607331A78044B520001A90988D1525B
S2140044E00123181C02B070476C10002082B0021C1A
S2140044F06B4607331A706B4607331A78024B520026
S214004500D35A181C02B070476C10002000B583B058
S214004510021C00916B4607331A706B4607331B78F4
S2140045200F3BDA00054BD218009B101C191C09F033
S21400453025FE0123181C03B000BDC0465C100020F9
S21400454082B0021C6B4607331A706B4607331B7823
S2140045500F3BDA00024BD318181C02B07047C04657
S2140045605C10002084B0021C6B4607331A700023D0
S21400457002936B4607331B781C4AB8214B43D3186B
S214004580103300225A800023039327E01849039A29
S214004590131CDB009B1A1B019B18CB189B78002B67
S2140045A019D01349039A131CDB009B1A1B019B1896
S2140045B05B5C6A46073212789A420CD10C49039A21
S2140045C0131CDB009B1A1B019B18CB1800229A7049
S2140045D0029B01330293039B01330393039B0B2B34
S2140045E0D4DD029B181C04B07047C046A0F7FF1F1E
S2140045F010F9FF1F00B585B0019000230293002339
S214004600039324E0154A039BB8214B43D318103379
S2140046105B88002B18D0039A019B9A4214D0039B08
S214004620B822534318331A1C0C4BD318181CFFF728
S21400463031FE031E08D0039BDBB2181CFFF792FF67
S214004640021C029B9B180293039B01330393039B5C
S214004650012BD7DD029B181C05B000BDA0F7FF1F7D
S21400466030B585B0021C6B4607331A706B460633AE
S2140046700A1C1A70002303935AE03149039A131C4C
S214004680DB009B1A1B019B18CB189B78002B4CD188
S2140046902B49039A131CDB009B1A1B019B186A46C6
S2140046A00632CB1812785A700AF0CAF9031CDAB22E
S2140046B0244B1B78D31AD8B22149039A131CDB006B
S2140046C09B1A1B019B18CB18021C9A701C49039A54
S2140046D0131CDB009B1A1B019B186A4607321278D4
S2140046E05A54039A131CDB009B1A1B019B18144A8E
S2140046F09B18DD1C144B1B68124A12789C180AF093
S2140047009FF9031C1A1C0F4B1B78D31A281C211C5C
S2140047101A1C0EF07DFB0A49039A131CDB009B1A39
S2140047201B019B18CB189B7807E0039B0133039370
S214004730039B0B2BA1DD01235B42181C05B030BD8B
S21400474010F9FF1F88F7FF1F84F7FF1F10B586B00C
S214004750041C081C111C6B460633221C1A8001AB75
S214004760021C1A806B4603330A1C1A700F236B4414
S214004770FF221A706B4603331B78002B00D076E0BE
S214004780002305932EE0754A059BB8214B43D318AA
S21400479010335B88002B10D0059BB8225343183388
S2140047A01A1C6E4BD318181CFFF774FD031E04D09A
S2140047B0059BDBB2181CFFF7D5FE0F236B441B7856
S2140047C07F2B0CD9654A059BB8214B43D318103371
S2140047D05B88002B03D10F236B44059A1A70059B48
S2140047E001330593059B012BCDDD0F236B441B780E
S2140047F07F2B01D9FF23ACE00F236B441B785BB201
S214004800564AB8214B43D318103301AA12885A804F
S2140048100F236B441B785BB2504AB8214B43D31826
S21400482010336A46063212881A800F236B441B78B0
S2140048305BB2B8225A43494BD4180F20FFF780FECC
S214004840031C201C191C09F099FC0F236B441B78D1
S2140048505BB2B822534318331A1C404BD318181CAB
S2140048604021FFF7F3FC0F236B441B7871E0002315
S21400487005932BE0394A059BB8214B43D3181033D8
S2140048801B886A46063212889A421CD1334A059B18
S214004890B8214B43D31810335B88002B13D0059BED
S2140048A0B8225A432D4BD4180F20FFF749FE031C9D
S2140048B0201C191C09F070FC031E04D00F236B4447
S2140048C0059A1A7005E0059B01330593059B012B9D
S2140048D0D0DD0F236B441B787F2B01D9FF2338E0F4
S2140048E0059BDAB26B4603331B78101C191CFFF7C6
S2140048F0B7FE031C0493049B002B10DA059B181CC0
S214004900FFF778FE031E0ADD059BDAB26B4603331B
S2140049101B78101C191CFFF7A3FE031C0493049BB2
S214004920002B15DD0D4A059BB8214B43D3181033D9
S2140049309A88049B9BB2D31898B2084A059BB82164
S2140049404B43D3181033021C9A80059BDBB200E061
S214004950FF235BB2181C06B010BDC046A0F7FF1FB1
S21400496010B584B00190019BB822534320331A1C23
S2140049702D4BD3189C1C2C4A019BB8214B43D318B3
S21400498020331B881A1C294B181C211C0EF040FAD9
S214004990002303933EE02649039A131CDB009B1A70
S2140049A01B019B18CB189B78002B30D02049039A0C
S2140049B0131CDB009B1A1B019B185B5C1A1E019BD9
S2140049C09A4224D11A49039A131CDB009B1A1B0136
S2140049D09B18CB185B789BB2DB009BB21A1C134B60
S2140049E0D018039A131CDB009B1A1B019B18104A55
S2140049F09B18DC1C0E49039A131CDB009B1A1B0138
S214004A009B18CB189B78211C1A1C0EF001FA039BEE
S214004A1001330393039B0B2BBDDD019BDBB2181CFC
S214004A20FFF7A0FD04B010BDA0F7FF1F300A00205E
S214004A3010F9FF1F00B583B0002301931D4B9B792F
S214004A409BB20220191CFFF73BFD1A4B9B79112BDA
S214004A500CD1194B1B880193174B5B881A1E019BC0
S214004A609A421FDA144B5B8801931BE0114B9B792B
S214004A70062B0CD1104B1B8801930F4B5B881A1E1C
S214004A80019B9A420EDA0C4B5B8801930AE0094BB5
S214004A909B793A2B06D1084B1B781B02064A5278A4
S214004AA013430193019B9BB20120191CFFF708FDDD
S214004AB003B000BD300A0020580A002000B585B0BB
S214004AC001900023039323E01549039A131C9B00CF
S214004AD09B185B005B5C012B17D1039A131C9B0091
S214004AE09B185B000E4A9B189A1C019B101C191CF5
S214004AF008220EF065F9031E07D1039A131C9B00CB
S214004B009B185B00064A9B1806E0039B0133039341
S214004B10039B012BD8DD0023181C05B000BDC04642
S214004B2060FEFF1F84B0021C6B4607331A7000231A
S214004B30039320E01349039A131C9B009B185B0009
S214004B405B5C012B14D10F49039A131C9B009B1826
S214004B505B00CB185B786A46073212789A4207D118
S214004B60039A131C9B009B185B00064A9B1806E0E2
S214004B70039B01330393039B012BDBDD0023181CEF
S214004B8004B0704760FEFF1F00B585B00291019229
S214004B900F236B44021C1A70029B1A7A019B1B7827
S214004BA002214B40DBB29A4231D1029B5A7A019BDA
S214004BB05B789A422BD1029B9A7A019B9B789A4209
S214004BC025D1029BDA7A019BDB789A421FD1029BA1
S214004BD01A7B019B1B799A4219D1029B5A7B019B37
S214004BE05B799A4213D1029B9A7B019B9B799A42EE
S214004BF00DD1029BDA7B019BDB799A4207D10F230A
S214004C006B441B7803229A40131CDBB23FE0029BE6
S214004C101B89002B25D1029B9B7A002B21D1029B5E
S214004C20DB7AFF2B1DD1029B1B7BFE2B19D1029B2F
S214004C305B7B002B15D1174B1A68029B0E33101C9A
S214004C40191C02220EF0E4F8124B1B689A1C114B3A
S214004C501A600F236B441B7802229A40131CDBB2A7
S214004C6015E00C4B1A68029B0833101C191C08220E
S214004C700EF0CEF8074B1B6808331A1C054B1A605B
S214004C800F236B441B7801229A40131CDBB2181CBE
S214004C9005B000BD78FEFF1F00B587B003900291F7
S214004CA000936B4607331A7017236B446A46073225
S214004CB0127812091A7016236B446A460732127865
S214004CC00F210A401A7017236B441B780F2B03D052
S214004CD017236B441A7800E0102217236B441A70CF
S214004CE016236B441B780F2B03D016236B441A78BD
S214004CF000E0102216236B441A7017236B441B78AF
S214004D00002B09D017236B441B780399029A081CC2
S214004D10111C1A1C0EF07CF817236B441A78162305
S214004D206B441B78D3180F2B12DC17236B441B78AD
S214004D30039AD11817236B441A7816236B441B78F2
S214004D40D3181022D31A081C00211A1C0EF0EAF8F9
S214004D5016236B441B78002B29D016236B441B7834
S214004D601022D31A039AD118174B1A6816236B44CD
S214004D701B78081C111C1A1C0EF04AF816236B44EC
S214004D801B78022B0AD117236B441B780A2B05D8F5
S214004D90039BFF22DA72039BFE221A730A4B1A68E1
S214004DA016236B441B78D218074B1A600AE01723A9
S214004DB06B441B78002B05D0039A009B101C191C13
S214004DC003F020FE07B000BD78FEFF1F00B585B0DB
S214004DD00190D24B1B689A1CD14B1A600F236B4470
S214004DE060221A700E236B4400221A70CB4B1A688E
S214004DF0CC4B1B780233D31800221A70CA4B181CEF
S214004E00FFF75CFE031E05D1C84B181CFFF756FEC5
S214004E10031E0DD00E236B440E226A4412788021A6
S214004E2049420A431A70BE4B1B685A1CBC4B1A6098
S214004E30BF4B1B781B01DAB2BD4B5B781B09DBB29C
S214004E40DBB21343DAB20D236B441A700D236B44A6
S214004E501B789B01DAB20D236B441B789B08DBB2F0
S214004E60DBB21343DAB20D236B441A70B04B5B7897
S214004E701A1C0F2313402CD1AD4B5B88002B28D176
S214004E800F236B440F226A44127810210A431A70CB
S214004E90A74B1B781A1C0F2313400ED1A44B5B782C
S214004EA01A1CF023134008D10F236B440F226A44C8
S214004EB0127808210A431A7056E0994B1B680D2297
S214004EC06A4412781A70964B1B685A1C944B1A60E8
S214004ED04AE0974B1B781A1C0F23134031D1944B92
S214004EE05B781A1CF02313402BD10F236B440F2240
S214004EF06A44127808210A431A70894B1B680D22EF
S214004F006A441278111C3F2291430A1CD1B2884A87
S214004F105278D2B2101C0F220240D2B20A43D2B24A
S214004F20D2B21A707E4B1B685A1C824B101C191C7E
S214004F3002220DF06DFF7A4B1B68DA1C784B1A6064
S214004F4012E0774B1A687A4B101C191C04220DF0DD
S214004F505FFF734B1B680D226A4412781A70704B01
S214004F601B681A1D6E4B1A60714B9B79112B07D16B
S214004F700F236B440F226A44127804210A431A70E6
S214004F800F236B441B780422134009D1644B1B6823
S214004F90674A92791A70624B1B685A1C604B1A60FB
S214004FA0634BDB79402B0CD0FF2B13D0012B1AD18F
S214004FB00F236B440F226A44127801210A431A70A9
S214004FC01CE00F236B440F226A44127802210A4326
S214004FD01A7013E00F236B440F226A4412780321E1
S214004FE00A431A700AE04E4B1B68514AD2791A706F
S214004FF04B4B1B685A1C4A4B1A60C0464B4B1B88CF
S214005000002B2AD1494B5B88002B26D1474B9B8827
S214005010002B22D1454BDB88002B1ED1434B1B892E
S214005020002B1AD1414B5B89002B16D13F4B9B8935
S214005030002B12D13D4BDB89002B0ED10E236B4487
S2140050400E226A44127840210A431A700E236B44DB
S2140050500E226A4412781A7086E0344B181CFFF74A
S2140050602DFD021C344B1A60334B1B68002B30D0CE
S2140050700E236B440E226A441278402149420A43AA
S2140050801A70264B1A68274B1B780233D218234B0C
S2140050901968244B1B780233CB181B78D9B2264BE1
S2140050A01B685B781B01DBB20B43DBB2DBB2137011
S2140050B01E4A224B0420111C1A1CFFF765FD031C18
S2140050C0191C0E236B440E226A4412780A431A7087
S2140050D04AE0164B1B78FE2B32D1144B5B78802BA4
S2140050E02ED1134B5B8B002B2AD1114B9B8B002BA5
S2140050F026D10F4BDB8B002B22D10C4A0F4B042002
S214005100111C1A1CFFF740FD031C191C0E236B44D0
S2140051100E226A4412780A431A7025E084F7FF1FAD
S21400512078FEFF1F88F7FF1F480A0020380A002075
S214005130300A0020320A002074FEFF1F280A0020D2
S2140051400E236B440E226A4412781A70C94B1A68F2
S214005150C94B101C191C10220DF05AFEC54B1B68BB
S21400516010331A1CC34B1A60C44B1B78FF2B00D09D
S214005170B5E00E236B440E226A44127808210A43D7
S2140051801A70BE4B5B78022B2FD1BC4B5B88002B72
S2140051902BD1BA4B9B88002B27D1B84BDB88002B32
S2140051A023D1B64B1B89002B1FD1B44B5B89002B38
S2140051B01BD1B24B9B89002B17D1B04B9B7B002B8E
S2140051C013D10E236B440E226A44127803210A433D
S2140051D01A70A84B1B68AA4A2721525C1A70A54B66
S2140051E01B685A1CA34B1A6078E0A44B5B88002B04
S2140051F02FD1A24B9B88002B2BD1A04BDB88002BFA
S21400520027D19E4B1B89002B23D19C4B5B89002BFF
S2140052101FD19A4B1B7B002B1BD10E236B440E22F7
S2140052206A44127802210A431A70924B1B68944A09
S214005230527E1A708F4B1B685A1C924B101C191CFE
S21400524003220DF0E5FD8B4B1B681A1D894B1A6077
S21400525044E08A4B5B88002B2BD1884B9B88002B25
S21400526027D1864BDB88002B23D1844B1B89002B50
S2140052701FD1824B9B7A002B1BD10E236B440E2230
S2140052806A44127801210A431A707A4B1B687C4ADA
S214005290527E1A70774B1B685A1C7B4B101C191CCD
S2140052A005220DF0B5FD734B1B689A1D714B1A60F5
S2140052B014E00E236B440E226A4412781A706D4B6B
S2140052C01A686E4B101C191C10220DF0A1FD694BBC
S2140052D01B6810331A1C674B1A6070E06FE0674B50
S2140052E0181CFFF7EBFB021C684B1A60674B1B6829
S2140052F0002B2BD00E236B440E226A441278042116
S2140053000A431A70624B1A68624B1B780233D21833
S2140053105F4B19685F4B1B780233CB1819785B4BD1
S2140053201B685B780B43DBB21370544A019B00206A
S214005330111C1A1CFFF728FC031C191C0E236B44B7
S2140053400E226A4412780A431A7038E04B4B1B78D8
S214005350FE2B20D1494B5B78802B1CD1484B5B8BB6
S214005360002B18D1464B9B8B002B14D1444BDB8B68
S214005370002B10D1414A019B0020111C1A1CFFF77C
S21400538003FC031C191C0E236B440E226A4412787D
S2140053900A431A7013E00E236B440E226A441278F6
S2140053A01A70344B1A68354B101C191C10220DF05D
S2140053B02FFD304B1B6810331A1C2E4B1A60364BD1
S2140053C028221A702E4B9B79112B00D0FFE0334B0E
S2140053D01B881B029AB2314B1B881B0A9BB29BB2DE
S2140053E013439BB29BB21A1C2D4B13402D4A93427B
S2140053F05AD12A4B5B881B029AB2284B5B881B0A41
S2140054009BB29BB213439BB29BB21A1C244B134015
S214005410244A934248D1174B1B68F3221A70154B47
S2140054201B6801331D4A12881202D1B21B4A128829
S214005430120A92B2D2B20A43D2B2D2B25032D2B228
S2140054401201D1B2154A52881202D0B2134A5288BB
S214005450120A92B2D2B20243D2B2D2B28A18D2B2F0
S2140054605032D2B21A70034B1B689A1C014B1A605A
S2140054709AE0C04678FEFF1F380A0020480A00203F
S214005480300A0020550A0020530A002074FEFF1F31
S21400549084F7FF1F88F7FF1F90F7FF1F580A0020AA
S2140054A0F0FF0000B0F00000584B5B881B029AB279
S2140054B0564B5B881B0A9BB29BB213439BB29BB2B4
S2140054C01A1CFF231B021A40F0231B029A4222D109
S2140054D04F4B1B68F1221A704D4B1B685A1C4B4BE6
S2140054E0101C191C02220DF093FC494B1B68033359
S2140054F0464A52881202D1B2444A5288120A92B2DE
S214005500D2B20A43D2B2D2B21A70414B1B681A1DED
S2140055103F4B1A6048E03D4B1B881B029AB23B4B40
S2140055201B881B0A9BB29BB213439BB29BB21A1CEE
S214005530FF231B021A40F0231B029A4222D1344B4F
S2140055401B68F2221A70324B1B6801332F4A1288EE
S2140055501202D1B22D4A1288120A92B2D2B20A436D
S214005560D2B2D2B21A702A4B1B689A1C294B101C56
S214005570191C02220DF04CFC254B1B681A1D244BEF
S2140055801A6011E0224B1B68F0221A70204B1B6831
S2140055905A1C1E4B101C191C04220DF039FC1C4B07
S2140055A01B685A1D1A4B1A60194B1A681A4B101CA6
S2140055B0191C02220DF02CFC154B1B689A1C144B70
S2140055C01A60164B1B780833DAB2144B1A70144B59
S2140055D01B68144A12789B180F226A4412781A70B5
S2140055E00F4B1A680F4B1B780133D3180E226A44F0
S2140055F012781A70064B1B681A1C094B1B68D31AC4
S214005600DAB2084B1A70C04605B000BD580A002032
S21400561078FEFF1F5A0A00205E0A002090F7FF1F40
S21400562084F7FF1F88F7FF1F70B586B001900A1C2D
S2140056306B4602331A80E34B1A68E34B1B7802333F
S214005640D218E24B1A60DF4B1B68DF4A12789A18B2
S21400565017236B4412781A70DA4B1A68DA4B1B78E9
S2140056600133D21816236B4412781A7016236B4433
S2140056701B785BB2002B04DAD44B1B685A1CD34B46
S2140056801A6017236B441B781022134073D117231C
S2140056906B441B780822134043D1019B5A1CCB4B0A
S2140056A01B680133101C191C03220DF0B1FBC74BFD
S2140056B01A6815236B4412781A70C44B1B681A1D9F
S2140056C0C24B1A6015236B441B789B08DBB2DBB217
S2140056D01A1C0F231340DBB21A1C60231343DBB2E1
S2140056E0DAB2019B1A7015236B441B789B08DBB259
S2140056F0DBB21A1C30231340DAB215236B441B7836
S2140057009B01DBB21343DAB2019B5B78DBB2191C58
S2140057100F230B40DBB21343DBB2DAB2019B5A70A5
S21400572066E0019B60221A70A84B1B681B78DBB2F0
S2140057301A1C0F231340DAB2A44B1B681B789B0875
S214005740DBB2DBB2191C30230B40DBB21343DBB2F7
S214005750DAB2019B5A70019B9A1C9C4B1B68013362
S214005760101C191C02220DF053FB984B1B68DA1C08
S214005770964B1A603CE017236B441B7808221340B4
S2140057802DD1924B1B681B789B08DBB2DBB21A1C30
S2140057900F231340DBB21A1C60231343DBB2DAB2CA
S2140057A0019B1A70894B1B681B789B01DAB2874BEA
S2140057B01B681B789B08DBB2DBB2191C30230B403E
S2140057C0DBB21343DBB2DAB2019B5A70019B0022B4
S2140057D05A807E4B1B685A1C7C4B1A6008E0019B63
S2140057E060221A70019B00225A70019B00225A8088
S2140057F017236B441B780422134009D1734B1B6894
S2140058001A78019B9A71714B1B685A1C6F4B1A6071
S21400581017236B441B780322134009D017236B44CD
S2140058201B78032213406A4AD25C019BDA7109E0B6
S214005830664B1B681A78019BDA71644B1B685A1C0E
S214005840624B1A6016236B441B78302213401B11E0
S214005850DAB215236B4403210A401A7016236B44F0
S2140058601B784022134040D016236B441B785BB253
S214005870002B09DA534B1A68534B1B780233D318A4
S2140058801B781B09DAB200E0002205AB1A7015235C
S2140058906B441B78002B0CD005AB1B78181CFFF74D
S2140058A041F9021C4B4B1A604A4B1B68002B00D177
S2140058B02CE2019B08331E1C15236B441B78002B1F
S2140058C003D0444B1B689C1C00E0002415236B444B
S2140058D01B78414AD55C0F20FEF732FE031C301CB5
S2140058E0211C2A1CFFF7D8F912E0019B08331D1C67
S2140058F015236B441B78394AD45C0F20FEF720FE34
S214005900061C374B281C191C221C331CFFF7C4F935
S21400591015236B4416226A44127803210A401A7033
S21400592016236B441B780822134034D016236B448E
S2140059301B780422134000D092E002AA294B111CC7
S2140059401A1C0223081C111C1A1C0DF061FA1523E0
S2140059506B441B78002B0ED015236B441B78022B50
S21400596009D81A4B1B681A7802AB5A70174B1B687B
S2140059705A1C164B1A60019B1833191C15236B44CE
S2140059801B78194AD35C02AA081C111C1A1C002397
S214005990FFF782F964E016236B441B780422134059
S2140059A04BD016236B441B785BB2002B1EDA054BDC
S2140059B01A68054B1B780233D3181B780F22134046
S2140059C0DAB214E084F7FF1F88F7FF1F78FEFF1F88
S2140059D05C3D010074FEFF1F503D01004C3D010080
S2140059E0583D010044370100543D010000221323B6
S2140059F06B441A7013236B441B78181CFFF792F83D
S214005A00021CC34B1A60C24B1B68002B00D17DE101
S214005A10019B18331E1CBE4B1B689D1C15236B4434
S214005A201B78BC4AD45C1020FEF78AFD031C301C91
S214005A30291C221CFFF730F912E0019B18331D1CAD
S214005A4015236B441B78B44AD45C1020FEF778FD0F
S214005A50061CB24B281C191C221C331CFFF71CF911
S214005A60AF4B1B782833DAB2AD4B1A7017236B4452
S214005A701B780422134000D105E1AA4B1B681B7853
S214005A801A1CF8231340F02B00D0FCE0019B1122D7
S214005A909A71A44B1B681A7812236B4404210A409F
S214005AA01A70A04B1B681B781A1CF3231340F12BAB
S214005AB024D002DCF02B05D028E1F22B4DD0F32BBE
S214005AC07AD023E1019B28331A1C964B1B680133BE
S214005AD0101C191C02220DF09BF9019B28339A1CFE
S214005AE0904B1B680333101C191C02220DF090F912
S214005AF08C4B1B685A1D8B4B1A60AAE0019B2833FF
S214005B001A1C884B1B680133101C191C02220DF04E
S214005B107FF9019B28331A1C824B1B6803331B78C2
S214005B209BB281498C4663449BB21B0299B27D4B63
S214005B301B6803331B789BB27B48844663449BB246
S214005B401B0A9BB29BB20B439BB29BB25380754B16
S214005B501B681A1D734B1A607BE0019B28331A1CC6
S214005B60704B1B6801331B789BB26F498C466344AD
S214005B709BB21B0299B26B4B1B6801331B789BB21E
S214005B806948844663449BB21B0A9BB29BB20B4394
S214005B909BB29BB21380019B28339A1C614B1B68F7
S214005BA00233101C191C02220DF032F95D4B1B68E3
S214005BB01A1D5C4B1A604CE0019B28331A1C594B8B
S214005BC01B6801331B781B09DBB29BB257498C4616
S214005BD063449BB21B0299B2524B1B6801331B787D
S214005BE01B09DBB29BB25148844663449BB21B0A36
S214005BF09BB29BB20B439BB29BB21380019B283394
S214005C001A1C484B1B6801331B789BB20F210B40B4
